:100000000EC01DC056C01BC01AC019C018C017C0F2
:1000100016C015C0B1C013C012C011C0D2C0112487
:100020001FBECFE5D2E0DEBFCDBF20E0A0E6B0E04E
:1000300001C01D92A136B207E1F725D137C1E0CF4B
:10004000CF93DF93CDB7DEB78DE290E0FC01108255
:1000500087E390E0FC01208187E390E02E7FFC01A4
:10006000208387E390E0FC01208187E390E0206219
:10007000FC01208388E390E0FC01208188E390E08C
:100080002160FC0120838BE590E0FC0120818BE561
:1000900090E02062FC01208385E390E0FC01208158
:1000A00085E390E02160FC0120830000DF91CF9187
:1000B00008951F920F920FB60F9211242F938F93D2
:1000C0009F93EF93FF93CF93DF93CDB7DEB786E394
:1000D00090E0FC018081882F90E081709927892B26
:1000E000F1F582E590E0FC0110828AE490E0FC01E9
:1000F00020818AE490E02260FC01208383E590E087
:10010000FC01208183E590E02160FC01208389E4EB
:1001100090E0FC01108289E590E0FC01208189E5F6
:1001200090E02061FC0120838EE290E0FC012081C0
:100130008EE290E02760FC0120838DE290E0FC01DC
:1001400020818DE290E02061FC0120838DE290E02F
:10015000FC0120818DE290E02460FC0120830000FE
:10016000DF91CF91FF91EF919F918F912F910F9000
:100170000FBE0F901F9018951F920F920FB60F92FF
:1001800011242F933F938F939F93EF93FF93CF93DC
:10019000DF93CDB7DEB722E530E082E590E0F901EC
:1001A0002081FC0120830000DF91CF91FF91EF912E
:1001B0009F918F913F912F910F900FBE0F901F90A5
:1001C00018951F920F920FB60F9211242F933F9301
:1001D0008F939F93EF93FF93CF93DF93CDB7DEB7CA
:1001E0008FE290E0FC0180818093600088E390E0E2
:1001F000FC01308188E390E025E02327FC01208387
:100200000000DF91CF91FF91EF919F918F913F91EE
:100210002F910F900FBE0F901F901895CF93DF93E3
:100220001F92CDB7DEB7898389818695282F2575E2
:100230008981882F90E0880F991F8A7A822B898381
:10024000898186958695282F23738981882F90E050
:10025000880F991F880F991F8C7C822B8983898135
:1002600082958F70282F8981882F90E082959295B2
:10027000907F9827807F9827822B898389810F9090
:10028000DF91CF910895CF93DF93CDB7DEB78FE5A0
:1002900090E0FC0120818FE590E02068FC01208344
:1002A000CFDE80E090E0DF91CF910895F894FFCF0A
:00000001FF
